:040000008031212802
:10000800803127001308031909009301D030F2004A
:10001800F20B0C2820000C19090080316E20803169
:10002800F3000F30F30EF305730822008E007308F7
:10003800F00000308031552009008031232820004D
:1000480025283830210099008E0122008E012100D8
:100058000C1523000C1121000C1623000C160D3072
:1000680021009D0010309E008B15270012158B175C
:1000780000304320803122008E0063003C28F400C9
:1000880064002300951844287408910092013F30B9
:10009800950515140310151803140030093D1308AD
:1000A8000800F10023009518562871089100920164
:1000B800700893003F30950503108B1B03148B13B6
:1000C800151555309600AA30960095141511031889
:1000D8008B17080021009D149D1870281C08080023
:020000040001F9
:04000E00A4CFFFDCA0
:00000001FF
