:08000000803102288731B02F86
:100F6000A001A1012000B42F74308600003087005A
:100F70000830F30000301E00F30BBB2F3830210087
:100F800099008E010C1623000C160D3021009D00D7
:100F900010309E007430FC000830FD007C08DA2719
:100FA0008731890E0F3922008E00FC0AFD030319D8
:100FB000CA2FCE2FF2008600870101082000A00270
:100FC000031CA10372088600FA27810072088600BC
:100FD000870101082000A0070318A10A2108F100D9
:100FE0002008F000F136F00CF136F00CF136F00C80
:100FF0007008080021009D149D18FC2F1C08080093
:020000040001F9
:04000E00A4CFFFDCA0
:00000001FF
