:08000000803102288731A42F92
:100F48000130F4002000A82FF301F30A22008E01DB
:100F58008E153830210099008E010C1523000C11D4
:100F680021000C1623000C160D3021009D001030B6
:100F78009E00FA278731F200D030F100F10BC22F22
:100F8800F2037208FF3A0319CE2F5330F100F10B28
:100F9800CB2FC42FE4278731003A0319D52F01300E
:100FA800F3067303031DDE2F22008E36031CBD2FAC
:100FB8008E15BD2F22008E350E1EBD2F0E14BD2F8F
:100FC80020000C19F72FD030F000F00BE92FF408AF
:100FD800031DF12F20000C1D003420000C19F72FE1
:100FE8000130F4010800F401F40A003421009D14D2
:080FF8009D18FC2F1C080800E5
:020000040001F9
:04000E00A4CFFFDCA0
:00000001FF
